{
  "_format": "hh-sol-artifact-1",
  "contractName": "PoopTracker",
  "sourceName": "contracts/PoopTracker.sol",
  "abi": [
    {
      "inputs": [
        {
          "internalType": "address",
          "name": "_verifierAddress",
          "type": "address"
        }
      ],
      "stateMutability": "nonpayable",
      "type": "constructor"
    },
    {
      "anonymous": false,
      "inputs": [
        {
          "indexed": true,
          "internalType": "address",
          "name": "user",
          "type": "address"
        },
        {
          "indexed": true,
          "internalType": "bytes32",
          "name": "cidHash",
          "type": "bytes32"
        }
      ],
      "name": "PoopEventLogged",
      "type": "event"
    },
    {
      "inputs": [
        {
          "internalType": "bytes32",
          "name": "_cidHash",
          "type": "bytes32"
        },
        {
          "internalType": "uint256[2]",
          "name": "_pA",
          "type": "uint256[2]"
        },
        {
          "internalType": "uint256[2][2]",
          "name": "_pB",
          "type": "uint256[2][2]"
        },
        {
          "internalType": "uint256[2]",
          "name": "_pC",
          "type": "uint256[2]"
        },
        {
          "internalType": "uint256[1]",
          "name": "_pubSignals",
          "type": "uint256[1]"
        }
      ],
      "name": "logPoopEvent",
      "outputs": [],
      "stateMutability": "nonpayable",
      "type": "function"
    },
    {
      "inputs": [
        {
          "internalType": "address",
          "name": "",
          "type": "address"
        },
        {
          "internalType": "uint256",
          "name": "",
          "type": "uint256"
        }
      ],
      "name": "userPoopEvents",
      "outputs": [
        {
          "internalType": "address",
          "name": "userAddress",
          "type": "address"
        },
        {
          "internalType": "bytes32",
          "name": "cidHash",
          "type": "bytes32"
        }
      ],
      "stateMutability": "view",
      "type": "function"
    },
    {
      "inputs": [],
      "name": "verifierContract",
      "outputs": [
        {
          "internalType": "contract Groth16Verifier",
          "name": "",
          "type": "address"
        }
      ],
      "stateMutability": "view",
      "type": "function"
    }
  ],
  "bytecode": "0x608060405234801561001057600080fd5b50604051610ced380380610ced833981810160405281019061003291906100dc565b80600160006101000a81548173ffffffffffffffffffffffffffffffffffffffff021916908373ffffffffffffffffffffffffffffffffffffffff16021790555050610109565b600080fd5b600073ffffffffffffffffffffffffffffffffffffffff82169050919050565b60006100a98261007e565b9050919050565b6100b98161009e565b81146100c457600080fd5b50565b6000815190506100d6816100b0565b92915050565b6000602082840312156100f2576100f1610079565b5b6000610100848285016100c7565b91505092915050565b610bd5806101186000396000f3fe608060405234801561001057600080fd5b50600436106100415760003560e01c806381f9805714610046578063938c194f14610062578063cf69568814610093575b600080fd5b610060600480360381019061005b919061066d565b6100b1565b005b61007c60048036038101906100779190610748565b6102c2565b60405161008a9291906107a6565b60405180910390f35b61009b610323565b6040516100a8919061082e565b60405180910390f35b600160009054906101000a900473ffffffffffffffffffffffffffffffffffffffff1673ffffffffffffffffffffffffffffffffffffffff166343753b4d858585856040518563ffffffff1660e01b81526004016101129493929190610a76565b602060405180830381865afa15801561012f573d6000803e3d6000fd5b505050506040513d601f19601f820116820180604052508101906101539190610af5565b610192576040517f08c379a000000000000000000000000000000000000000000000000000000000815260040161018990610b7f565b60405180910390fd5b6000803373ffffffffffffffffffffffffffffffffffffffff1673ffffffffffffffffffffffffffffffffffffffff16815260200190815260200160002060405180604001604052803373ffffffffffffffffffffffffffffffffffffffff16815260200187815250908060018154018082558091505060019003906000526020600020906002020160009091909190915060008201518160000160006101000a81548173ffffffffffffffffffffffffffffffffffffffff021916908373ffffffffffffffffffffffffffffffffffffffff160217905550602082015181600101555050843373ffffffffffffffffffffffffffffffffffffffff167f3c40d8f65351f733bee1299a55c5d1b08ac88b2cb2ce1fdb7a5e380c024783f460405160405180910390a35050505050565b600060205281600052604060002081815481106102de57600080fd5b9060005260206000209060020201600091509150508060000160009054906101000a900473ffffffffffffffffffffffffffffffffffffffff16908060010154905082565b600160009054906101000a900473ffffffffffffffffffffffffffffffffffffffff1681565b6000604051905090565b600080fd5b6000819050919050565b61036b81610358565b811461037657600080fd5b50565b60008135905061038881610362565b92915050565b600080fd5b6000601f19601f8301169050919050565b7f4e487b7100000000000000000000000000000000000000000000000000000000600052604160045260246000fd5b6103dc82610393565b810181811067ffffffffffffffff821117156103fb576103fa6103a4565b5b80604052505050565b600061040e610349565b905061041a82826103d3565b919050565b600067ffffffffffffffff82111561043a576104396103a4565b5b602082029050919050565b600080fd5b6000819050919050565b61045d8161044a565b811461046857600080fd5b50565b60008135905061047a81610454565b92915050565b600061049361048e8461041f565b610404565b905080602084028301858111156104ad576104ac610445565b5b835b818110156104d657806104c2888261046b565b8452602084019350506020810190506104af565b5050509392505050565b600082601f8301126104f5576104f461038e565b5b6002610502848285610480565b91505092915050565b600067ffffffffffffffff821115610526576105256103a4565b5b602082029050919050565b600061054461053f8461050b565b610404565b9050806040840283018581111561055e5761055d610445565b5b835b81811015610587578061057388826104e0565b845260208401935050604081019050610560565b5050509392505050565b600082601f8301126105a6576105a561038e565b5b60026105b3848285610531565b91505092915050565b600067ffffffffffffffff8211156105d7576105d66103a4565b5b602082029050919050565b60006105f56105f0846105bc565b610404565b9050806020840283018581111561060f5761060e610445565b5b835b818110156106385780610624888261046b565b845260208401935050602081019050610611565b5050509392505050565b600082601f8301126106575761065661038e565b5b60016106648482856105e2565b91505092915050565b6000806000806000610140868803121561068a57610689610353565b5b600061069888828901610379565b95505060206106a9888289016104e0565b94505060606106ba88828901610591565b93505060e06106cb888289016104e0565b9250506101206106dd88828901610642565b9150509295509295909350565b600073ffffffffffffffffffffffffffffffffffffffff82169050919050565b6000610715826106ea565b9050919050565b6107258161070a565b811461073057600080fd5b50565b6000813590506107428161071c565b92915050565b6000806040838503121561075f5761075e610353565b5b600061076d85828601610733565b925050602061077e8582860161046b565b9150509250929050565b6107918161070a565b82525050565b6107a081610358565b82525050565b60006040820190506107bb6000830185610788565b6107c86020830184610797565b9392505050565b6000819050919050565b60006107f46107ef6107ea846106ea565b6107cf565b6106ea565b9050919050565b6000610806826107d9565b9050919050565b6000610818826107fb565b9050919050565b6108288161080d565b82525050565b6000602082019050610843600083018461081f565b92915050565b600060029050919050565b600081905092915050565b6000819050919050565b6108728161044a565b82525050565b60006108848383610869565b60208301905092915050565b6000602082019050919050565b6108a681610849565b6108b08184610854565b92506108bb8261085f565b8060005b838110156108ec5781516108d38782610878565b96506108de83610890565b9250506001810190506108bf565b505050505050565b600060029050919050565b600081905092915050565b6000819050919050565b600081905092915050565b61092881610849565b6109328184610914565b925061093d8261085f565b8060005b8381101561096e5781516109558782610878565b965061096083610890565b925050600181019050610941565b505050505050565b6000610982838361091f565b60408301905092915050565b6000602082019050919050565b6109a4816108f4565b6109ae81846108ff565b92506109b98261090a565b8060005b838110156109ea5781516109d18782610976565b96506109dc8361098e565b9250506001810190506109bd565b505050505050565b600060019050919050565b600081905092915050565b6000819050919050565b6000602082019050919050565b610a28816109f2565b610a3281846109fd565b9250610a3d82610a08565b8060005b83811015610a6e578151610a558782610878565b9650610a6083610a12565b925050600181019050610a41565b505050505050565b600061012082019050610a8c600083018761089d565b610a99604083018661099b565b610aa660c083018561089d565b610ab4610100830184610a1f565b95945050505050565b60008115159050919050565b610ad281610abd565b8114610add57600080fd5b50565b600081519050610aef81610ac9565b92915050565b600060208284031215610b0b57610b0a610353565b5b6000610b1984828501610ae0565b91505092915050565b600082825260208201905092915050565b7f496e76616c69642070726f6f6600000000000000000000000000000000000000600082015250565b6000610b69600d83610b22565b9150610b7482610b33565b602082019050919050565b60006020820190508181036000830152610b9881610b5c565b905091905056fea264697066735822122028a295bb3a6673cc6ad007e7a1c4491f1ddc059afe6a712db7cec39f2316e5df64736f6c634300081c0033",
  "linkReferences": {},
  "deployedLinkReferences": {}
}